:020000020000FC
:1000000001E0902F00E0A02E00E0B02E00E0C02E16
:100010000EE1D02E00E0502E602E0FE50DBF04E063
:100020000EBF0FEF01BB00E007BB0FEF08BB00E8FE
:1000300008B905E00EBD00270DBD0CBD02B70B369B
:1000400008F0639404D0A8D048D07BD0F7CF91308B
:1000500019F492989398949A923019F4929A9398EA
:100060009498933019F49298939A9498943019F440
:10007000929A939A9498953049F50CB51DB5003035
:1000800059F5103839F0103009F026C0929A939A39
:10009000949A22C09298939894985394D51408F403
:1000A000552490D03D2DDD27C0E6C50DC50DC50DED
:1000B0000FEFC026B026A026C992B992A992C99284
:1000C000B992A992C992B992A99285D0963021F499
:1000D000929A9398949AADD0089510E006B301FDDA
:1000E000089513951F3FD1F706B301FFFDCF91305F
:1000F00021F40EE1D012D3946ED0923049F40B2D3E
:10010000007F029503950295007F1FE0B122B00E9B
:10011000933049F40C2D007F029503950295007FE2
:100120001FE0C122C00E943049F40A2D007F0295D1
:1001300003950295007F1FE0A122A00E43D04BD073
:10014000089510E006B302FD089513951F3FD1F7FF
:1001500006B302FFFDCF913021F401E0D012DA9412
:100160003AD0923031F40B2D03950F7010EFB1227D
:10017000B00E933031F40C2D03950F7010EFC122A7
:10018000C00E943031F40A2D03950F7010EFA122A8
:10019000A00E18D020D0089510E006B300FD0895F9
:1001A00013951F3FD1F706B300FFFDCF939597300E
:1001B00041F49650963029F4BB24AA24CC2402D0D2
:1001C0000AD008953D2DDD27C0E6C992B992A992C3
:1001D0003A95D9F7089530E03D0D3D0D3D0D3A9526
:1001E00048E0142E52E060E0DD27C0E629919894A3
:1001F00052BB00000000269530F44A9571F0969AA3
:1002000097980000000062BB000030F04A9551F062
:10021000969A979800000000EBCF2991412D3A95CE
:1002200031F0F1CF2991412D3A9509F0F5CF919810
:1002300008950CB51DB5003021F5103059F0183275
:1002400079F0153549F01D3781F0153A39F01D3C2C
:1002500089F00895B39413C0A39411C0C3940FC040
:1002600000EFB294A294C2940AC000EFB294A29498
:10027000C29405C000EFB294A294C29400C0A2DF61
:10028000AADF089505E003BF002702BF02B70F3FB2
:0C029000E9F7002702BF1A95C9F708958E
:00000001FF
